:020000020000FC
:040000000C9422003A
:100040000C94E10008E00EBF0FEF0DBF002430203C
:10005000B1E0A8E010E40D9211501130E0F7B1E0EA
:10006000A8E00BE10D930AE10D9309E50D9371E012
:1000700006E34424402A0FE304B90FE007B90CEF6C
:100080000AB905B808B80BB800E600937C0007E889
:1000900000937A001091250008EF102305E0102B43
:1000A00015BD789401E010916E00102B10936E0036
:1000B0003324D1E0C0E008E0099201500130E0F7BC
:1000C0000E94F9000E9442012227B1E0A0E001E075
:1000D0002D91112720FB16F921FB17F9322F3695A8
:1000E000369508B800000000000000000000000085
:1000F0000000000000000000000000000000000000
:1001000000000000000000000000000000000000EF
:1001100000000000000000000000000000000000DF
:1001200000000000000035B91BB908B9000F00310C
:1001300078F204E02D91102F20FB16F921FB17F91E
:10014000322F3695369508B80BB800000000000035
:10015000000000000000000000000000000000009F
:10016000000000000000000000000000000000008F
:10017000000000000000000000000000000000007F
:1001800000000000000000000000000035B91BB9AD
:10019000000F003478F200000000000000000000B2
:1001A000000000000000000000000000000000004F
:1001B0000000000000000BB837FC0C9458000C94B1
:1001C00064000F93339409E1301610F000E8302AF0
:1001D0000F911895D1E0C0E0C50F088180E031E0B3
:1001E000841724F4330F01960C94F000032B08833A
:1001F000089500917C0010EF012314E0012B00937F
:100200007C0000917A0010E4012B00937A000091A9
:100210007A0010E401230030D1F700917900003614
:1002200020F0013A28F40C941B0128E00C943D01C5
:1002300024E00C943D0100917C0010EF012315E0B7
:10024000012B00937C0000917A0010E4012B0093B5
:100250007A0000917A0010E401230030D1F7009178
:100260007900003620F0013A28F40C94410121E095
:100270000C943D0122E00C943D0100EF0723022B7A
:10028000702F08959F93FF92B1E0A8E00C919927F9
:10029000902B17E0192328E32923269526952695E8
:1002A00070FF0C9458011F5F13FD18500C947001DF
:1002B00071FF0C9461011011001018E011500C94A2
:1002C000700172FF0C946A012011001028E0215087
:1002D0000C94700173FF0C9470012F5F23FD20E0DC
:1002E0004427412B5527522B0E94EA00220F220F50
:1002F000220F212BFF24F22A2D9347E0442158E3BB
:1003000054215695569556950E94EA000FE3042114
:100310001FE31F21011711F400E8F02A47E04923E9
:1003200058E359235695569556950E94EA001FE7C3
:1003300019239C912FE32F213FE3392396FF2313A9
:1003400000100C94220096FDF7FE0C94AC012FE3F4
:1003500012231D931127192B20E42923122B1D93FF
:0C03600096FF0C948E01FF909F91089571
:00000001FF
