:020000020000FC
:040000000C94F40068
:040040000C94F40028
:1000680008E00EBF0FEF0DBF0024B1E0A0E020E0D4
:100078002D9320E02D9320E02D9320E02D9320E078
:100088002D9320E02D9320E02D9320E02D930FE376
:1000980004B90FE007B90CEF0AB900E005B908B9CF
:1000A8000BB9772700E600937C0007E800937A00F5
:1000B8001091250008EF102305E0102B1093250060
:1000C800789401E010916E00102B10936E0000914F
:1000D80015001EEF0123009315001FE01093270061
:1000E80041E051E00E94FA00D1E0C0E02227B1E0EF
:1000F800A0E001E02D91112720FB16F921FB17F94B
:10010800322F3695369508B8000000000000000030
:1001180000000000000000000000000000000000D7
:1001280000000000000000000000000000000000C7
:1001380000000000000000000000000000000000B7
:100148000000000000000000000035B91BB908B924
:10015800000F003178F204E02D91102F20FB16F9E2
:1001680021FB17F9322F3695369508B80BB80000E1
:100178000000000000000000000000000000000077
:100188000000000000000000000000000000000067
:100198000000000000000000000000000000000057
:1001A8000000000000000000000000000000000047
:1001B80035B91BB9000F003478F2000000000000C8
:1001C8000000000000000000000000000000000027
:1001D800000000000000000000000BB80C947A003A
:1001E80044E054E00E94FA000C947800D1E0C0E0AA
:1001F800C40F088180E031E0851724F4330F01969D
:100208000C940001032B0883089500917C0010EFE3
:10021800012314E0012B00937C0000917A0010E484
:10022800012B00937A0000917A0010E4012300303A
:10023800D1F700917900003620F0013A48F40C9487
:1002480033010CEF072312E0012B702F0C943301BC
:100258000CEF072311E0012B702F0C943301089544
:00000001FF
