:020000020000FC
:040000000C94340028
:1000680008E00EBF0FEF0DBF0024B1E0A0E020E0D4
:100078002D9320E02D9320E02D9320E02D9320E078
:100088002D9320E02D9320E02D9320E02D9340E048
:1000980050E00E94DF0040E057E00E94DF0047E0A8
:1000A80050E00E94DF0047E057E00E94DF000FE3C6
:1000B80004B90FE007B90CEF0AB900E005B908B9AF
:1000C8000BB92227B1E0A0E001E02D91112720FB18
:1000D80016F921FB17F9322F3695369508B8000026
:1000E8000000000000000000000000000000000008
:1000F80000000000000000000000000000000000F8
:1001080000000000000000000000000000000000E7
:1001180000000000000000000000000000000000D7
:1001280035B91BB908B9000F003178F204E02D91F8
:10013800102F20FB16F921FB17F9322F369536952B
:1001480008B80BB800000000000000000000000024
:100158000000000000000000000000000000000097
:100168000000000000000000000000000000000087
:100178000000000000000000000000000000000077
:1001880000000000000035B91BB9000F003478F2F8
:100198000000000000000000000000000000000057
:1001A8000000000000000000000000000000000047
:1001B8000BB80C946500D1E0C0E0C40F088180E062
:1001C80031E0851724F4330F01960C94E500032BD6
:0401D80008830895FB
:00000001FF
