:020000020000FC
:040000000C94340028
:1000680008E00EBF0FEF0DBF0024B1E0A0E020E0D4
:100078002D9320E02D9320E02D9320E02D9320E078
:100088002D9320E02D9320E02D9320E02D930FE376
:1000980004B90FE007B90CEF0AB900E005B908B9CF
:1000A8000BB9772700E600937C0007E800937A00F5
:1000B800D1E0C0E0002711E00883C10F0883C10F19
:1000C8000883C10F0883C10F0883C10F0883C10FBC
:1000D8000883C10F0883C10F0E940F01442770FBDA
:1000E80040F9F40E48EF4F21F41A442771FB40F908
:1000F800940F48EF4923941B40215021492B5F2935
:100108000E9400012227B1E0A0E001E02D91112713
:1001180020FB16F921FB17F9322F3695369508B8CA
:1001280000000000000000000000000000000000C7
:1001380000000000000000000000000000000000B7
:1001480000000000000000000000000000000000A7
:100158000000000000000000000000000000000097
:10016800000035B91BB908B9000F003178F204E076
:100178002D91102F20FB16F921FB17F9322F3695F8
:10018800369508B80BB80000000000000000000019
:100198000000000000000000000000000000000057
:1001A8000000000000000000000000000000000047
:1001B8000000000000000000000000000000000037
:1001C800000000000000000035B91BB9000F003422
:1001D80078F20000000000000000000000000000AD
:1001E8000000000000000000000000000000000007
:1001F80000000BB80C945C00D1E0C0E0C40F08818B
:1002080080E031E0851724F4330F01960C94060141
:10021800032B0883089500917C0010EF012314E05C
:10022800012B00937C0000917A0010E4012B0093CD
:100238007A0000917A0010E401230030D1F7009190
:100248007900003620F0013A48F40C9439010CEF9B
:10025800072312E0012B702F0C9439010CEF0723B0
:0C02680011E0012B702F0C943901089557
:00000001FF
