:020000020000FC
:040000000C9422003A
:100040000C949C0108E00EBF0FEF0DBF0024302080
:10005000B1E0A8E010E40D9211501130E0F7B1E0EA
:10006000A8E00BE10D930AE10D9309E50D9371E012
:1000700006E34424402A0FE304B90FE007B90CEF6C
:100080000AB905B808B80BB800E600937C0007E889
:1000900000937A001091250008EF102305E0102B43
:1000A00015BD789401E010916E00102B10936E0036
:1000B0003324D1E0C0E008E0099201500130E0F7BC
:1000C00000917C0010EF012314E0012B00937C00D1
:1000D00000917A0010E4012B00937A0000917A00DD
:1000E00010E401230030D1F700917900003620F0B0
:1000F000013A28F40C94820028E00C94A40024E037
:100100000C94A40000917C0010EF012315E0012B5A
:1001100000937C0000917A0010E4012B00937A0098
:1001200000917A0010E401230030D1F700917900AA
:10013000003620F0013A28F40C94A80021E00C9439
:10014000A40022E00C94A40000EF0723022B702FE0
:100150009F93FF92B1E0A8E00C919927902B17E0B4
:10016000192328E3292326952695269570FF0C94BC
:10017000BE001F5F13FD18500C94D60071FF0C9445
:10018000C7001011001018E011500C94D60072FF37
:100190000C94D0002011001028E021500C94D600BF
:1001A00073FF0C94D6002F5F23FD20E04427412BE2
:1001B0005527522B0E94A501220F220F220F212B1F
:1001C000FF24F22A2D9347E0442158E35421569509
:1001D000569556950E94A5010FE304211FE31F21A8
:1001E000011719F400E8F02A402A47E0492358E3B0
:1001F00059235695569556950E94A5011FE7192338
:100200009C912FE32F213FE3392396FF2313001006
:100210000C94220096FDF7FE0C9413012FE3122399
:100220001D931127192B20E42923122B1D9396FFD0
:100230000C94F50047FC0E94B401FF909F91222787
:10024000B1E0A0E001E02D91112720FB16F921FB80
:1002500017F9322F3695369508B8000000000000D7
:10026000000000000000000000000000000000008E
:10027000000000000000000000000000000000007E
:10028000000000000000000000000000000000006E
:1002900000000000000000000000000035B91BB99C
:1002A00008B9000F003178F204E02D91102F20FBE7
:1002B00016F921FB17F9322F3695369508B80BB889
:1002C000000000000000000000000000000000002E
:1002D000000000000000000000000000000000001E
:1002E000000000000000000000000000000000000E
:1002F00000000000000000000000000000000000FE
:10030000000035B91BB9000F003478F2000000007E
:1003100000000000000000000000000000000000DD
:100320000000000000000000000000000BB837FCD7
:100330000C9458000C941F010F93339409E130166C
:1003400010F000E8302A0F911895D1E0C0E0C50FF9
:10035000088180E031E0841724F4330F01960C9477
:10036000AB01032B088308950E94D001430D477011
:10037000542F0E94D001430D4770440F440F440F87
:10038000542BB1E0A8E00D911127102B0F7305132A
:1003900000100C94B40117FF0C94C301452E08956E
:1003A00000917C0010EF012315E0012B00937C00ED
:1003B00000917A0010E4012B00937A0000917A00FA
:0E03C00010E401230030D1F740917900089538
:00000001FF
