:020000020000FC
:040000000C9422003A
:100040000C94FD0008E00EBF0FEF0DBF90E0F02014
:1000500030200024B1E0A0E020E02D9320E02D939B
:1000600020E02D9320E02D9320E02D9320E02D9390
:1000700020E02D9320E02D93B1E0A8E000E010E413
:100080000D9311501030E4F7B1E0A8E00BE10C93B0
:1000900071E00FE304B90FE007B90CEF0AB900E013
:1000A00005B908B90BB900E600937C0007E8009396
:1000B0007A001091250008EF102305E0102B15BDE4
:1000C000789401E010916E00102B10936E00332491
:1000D000D1E0C0E0002711E00883C10F0883C10F01
:1000E0000883C10F0883C10F0883C10F0883C10FA4
:1000F0000883C10F0883C10F0E9415010E945E0191
:100100002227B1E0A0E001E02D91112720FB16F994
:1001100021FB17F9322F3695369508B800000000FC
:1001200000000000000000000000000000000000CF
:1001300000000000000000000000000000000000BF
:1001400000000000000000000000000000000000AF
:10015000000000000000000000000000000035B9B1
:100160001BB908B9000F003178F204E02D91102F6F
:1001700020FB16F921FB17F9322F3695369508B872
:100180000BB80000000000000000000000000000AC
:10019000000000000000000000000000000000005F
:1001A000000000000000000000000000000000004F
:1001B000000000000000000000000000000000003F
:1001C0000000000035B91BB9000F003478F20000C0
:1001D000000000000000000000000000000000001F
:1001E00000000000000000000000000000000BB84C
:1001F00037FC0C9467000C9480000F9333940EE14D
:10020000301610F000E8302A0F911895D1E0C0E0C8
:10021000C40F088180E031E0851724F4330F019684
:100220000C940C01032B0883089500917C0010EFBF
:10023000012315E0012B00937C0000917A0010E46B
:10024000012B00937A0000917A0010E40123003022
:10025000D1F700917900003620F0013A28F40C948F
:10026000370128E00C94590124E00C9459010091C5
:100270007C0010EF012314E0012B00937C0000911F
:100280007A0010E4012B00937A0000917A0010E4C8
:1002900001230030D1F700917900003620F0013AB7
:1002A00028F40C945D0121E00C94590122E00C9497
:1002B000590100EF0723022B702F0895B1E0A8E049
:1002C0000C9117E0102328E32023269526952695E8
:1002D00070FF0C946E011F5F13FD185071FF0C949A
:1002E00075011011001018E0115072FF0C947C0180
:1002F0002011001028E0215073FF0C9482012F5F21
:1003000023FD28504427412B5527522B0E940601DC
:0C031000220F220F220F212B2C930895A6
:00000001FF
