:020000020000FC
:040000000C9422003A
:100040000C94020108E00EBF0FEF0DBF302000241A
:10005000B1E0A0E020E02D9320E02D9320E02D934F
:1000600020E02D9320E02D9320E02D9320E02D9390
:1000700020E02D93B1E0A8E000E010E40D931150D2
:100080001030E4F7B1E0A8E00BE10D9371E00AE174
:100090000D9309E50D9306E34424402A0FE304B9C8
:1000A0000FE007B90CEF0AB900E005B908B90BB9C0
:1000B00000E600937C0007E800937A001091250089
:1000C00008EF102305E0102B15BD789401E0109186
:1000D0006E00102B10936E003324D1E0C0E0002797
:1000E00011E00883C10F0883C10F0883C10F088383
:1000F000C10F0883C10F0883C10F0883C10F088394
:10010000C10F0E941A010E9463012227B1E0A0E002
:1001100001E02D91112720FB16F921FB17F9322F51
:100120003695369508B80000000000000000000079
:1001300000000000000000000000000000000000BF
:1001400000000000000000000000000000000000AF
:10015000000000000000000000000000000000009F
:10016000000000000000000035B91BB908B9000FFD
:10017000003178F204E02D91102F20FB16F921FBBD
:1001800017F9322F3695369508B80BB800000000E5
:10019000000000000000000000000000000000005F
:1001A000000000000000000000000000000000004F
:1001B000000000000000000000000000000000003F
:1001C000000000000000000000000000000035B941
:1001D0001BB9000F003478F200000000000000009E
:1001E000000000000000000000000000000000000F
:1001F00000000000000000000BB837FC0C946C00FD
:100200000C9485000F93339409E1301610F000E848
:10021000302A0F911895D1E0C0E0C50F088180E029
:1002200031E0841724F4330F01960C941101032B51
:100230000883089500917C0010EF012314E0012B46
:1002400000937C0000917A0010E4012B00937A0067
:1002500000917A0010E401230030D1F70091790079
:10026000003620F0013A28F40C943C0128E00C946C
:100270005E0124E00C945E0100917C0010EF0123EC
:1002800015E0012B00937C0000917A0010E4012B13
:1002900000937A0000917A0010E401230030D1F736
:1002A00000917900003620F0013A28F40C946201A4
:1002B00021E00C945E0122E00C945E0100EF072324
:1002C000022B702F08959F93FF92B1E0A8E00C914C
:1002D0009927902B17E0102328E3202326952695B5
:1002E000269570FF0C9477011F5F13FD185071FF66
:1002F0000C947E011011001018E0115072FF0C9444
:1003000085012011001028E0215073FF0C948B010F
:100310002F5F23FD28504427412B5527522B0E9445
:100320000B01220F220F220F212BB1E0A8E0FF24A6
:10033000F22A2D9347E0442158E3542156955695CF
:1003400056950E940B010FE304211FE31F210117A3
:1003500011F400E8902B47E0492358E359235695C0
:10036000569556950E940B011FE7192320E8292373
:100370009C91922B2FE712232FE32F213FE3392368
:1003800096FF231300100C94220096FF97FF0C9405
:10039000D0012FE312231D9311272FE79223192B4E
:1003A00020E42923122B1D9396FF0C94AB01FF90A0
:0403B0009F9108957C
:00000001FF
